{
  "contractName": "DistributorRole",
  "abi": [
    {
      "inputs": [],
      "stateMutability": "nonpayable",
      "type": "constructor"
    },
    {
      "anonymous": false,
      "inputs": [
        {
          "indexed": true,
          "internalType": "address",
          "name": "account",
          "type": "address"
        }
      ],
      "name": "DistributorAdded",
      "type": "event"
    },
    {
      "anonymous": false,
      "inputs": [
        {
          "indexed": true,
          "internalType": "address",
          "name": "account",
          "type": "address"
        }
      ],
      "name": "DistributorRemoved",
      "type": "event"
    },
    {
      "inputs": [
        {
          "internalType": "address",
          "name": "account",
          "type": "address"
        }
      ],
      "name": "isDistributor",
      "outputs": [
        {
          "internalType": "bool",
          "name": "",
          "type": "bool"
        }
      ],
      "stateMutability": "view",
      "type": "function",
      "constant": true
    },
    {
      "inputs": [
        {
          "internalType": "address",
          "name": "account",
          "type": "address"
        }
      ],
      "name": "addDistributor",
      "outputs": [],
      "stateMutability": "nonpayable",
      "type": "function"
    },
    {
      "inputs": [],
      "name": "renounceDistributor",
      "outputs": [],
      "stateMutability": "nonpayable",
      "type": "function"
    }
  ],
  "bytecode": "0x608060405234801561001057600080fd5b5061001a3361001f565b6101b9565b61003781600061006e60201b6100b31790919060201c565b6040516001600160a01b038216907fddbf200aa634dc3fb81cfd68583dd1040d1c751d335e1d86b631bde3e977fea890600090a250565b6001600160a01b0381166100c75760405162461bcd60e51b815260206004820152602760248201526000805160206106478339815191526044820152660647265737320360cc1b60648201526084015b60405180910390fd5b6100d18282610143565b1561011e5760405162461bcd60e51b815260206004820152601c60248201527f6163636f756e742068617320616c72656164792074686520726f6c650000000060448201526064016100be565b6001600160a01b0316600090815260209190915260409020805460ff19166001179055565b60006001600160a01b0382166101995760405162461bcd60e51b815260206004820152602760248201526000805160206106478339815191526044820152660647265737320360cc1b60648201526084016100be565b506001600160a01b03166000908152602091909152604090205460ff1690565b61047f806101c86000396000f3fe608060405234801561001057600080fd5b50600436106100415760003560e01c8063644241db146100465780637250e224146100505780638f0c86fa14610063575b600080fd5b61004e61008a565b005b61004e61005e36600461040c565b610095565b61007661007136600461040c565b6100a1565b604051901515815260200160405180910390f35b6100933361021c565b565b61009e8161026b565b50565b60006100ad81836102ba565b92915050565b73ffffffffffffffffffffffffffffffffffffffff811661015b576040517f08c379a000000000000000000000000000000000000000000000000000000000815260206004820152602760248201527f6163636f756e74206973206e6f7420646966666572656e74207468617420616460448201527f647265737320300000000000000000000000000000000000000000000000000060648201526084015b60405180910390fd5b61016582826102ba565b156101cc576040517f08c379a000000000000000000000000000000000000000000000000000000000815260206004820152601c60248201527f6163636f756e742068617320616c72656164792074686520726f6c65000000006044820152606401610152565b73ffffffffffffffffffffffffffffffffffffffff1660009081526020919091526040902080547fffffffffffffffffffffffffffffffffffffffffffffffffffffffffffffff00166001179055565b61022760008261038c565b60405173ffffffffffffffffffffffffffffffffffffffff8216907f126174f6cf49c81cdb4a9214c6b8f037bef55b4ec31e4fc776cea2a1c8a88d5990600090a250565b6102766000826100b3565b60405173ffffffffffffffffffffffffffffffffffffffff8216907fddbf200aa634dc3fb81cfd68583dd1040d1c751d335e1d86b631bde3e977fea890600090a250565b600073ffffffffffffffffffffffffffffffffffffffff821661035f576040517f08c379a000000000000000000000000000000000000000000000000000000000815260206004820152602760248201527f6163636f756e74206973206e6f7420646966666572656e74207468617420616460448201527f64726573732030000000000000000000000000000000000000000000000000006064820152608401610152565b5073ffffffffffffffffffffffffffffffffffffffff166000908152602091909152604090205460ff1690565b73ffffffffffffffffffffffffffffffffffffffff81166103ac57600080fd5b6103b682826102ba565b6103bf57600080fd5b73ffffffffffffffffffffffffffffffffffffffff1660009081526020919091526040902080547fffffffffffffffffffffffffffffffffffffffffffffffffffffffffffffff00169055565b60006020828403121561041e57600080fd5b813573ffffffffffffffffffffffffffffffffffffffff8116811461044257600080fd5b939250505056fea2646970667358221220fc47d158a23316c4412f2b25b38ea995fd57608f34c8e9e1a786dc3843b3983f64736f6c634300080700336163636f756e74206973206e6f7420646966666572656e742074686174206164",
  "immutableReferences": {},
  "source": "// SPDX-License-Identifier: MIT\npragma solidity ^0.8.7;\n\n// Import the library 'Roles'\nimport \"./Roles.sol\";\n\n// Define a contract 'DistributorRole' to manage this role - add, remove, check\ncontract DistributorRole {\n  using Roles for Roles.Role;\n  \n  // Define 2 events, one for Adding, and other for Removing\n  event DistributorAdded(address indexed account);\n  event DistributorRemoved(address indexed account);\n  // Define a struct 'distributors' by inheriting from 'Roles' library, struct Role\n  Roles.Role private distributors;\n  // In the constructor make the address payable that deploys this contract the 1st distributor\n  constructor() {\n    _addDistributor(msg.sender);\n  }\n  \n  // Define a modifier that checks to see if msg.sender has the appropriate role\n  modifier onlyDistributor() {\n    require(isDistributor(msg.sender), \"is not a Distributor\");\n    _;\n  }\n\n  // Define a function 'isDistributor' to check this role\n  function isDistributor(address account) public view returns (bool) {\n    return distributors.has(account);\n  }\n\n  // Define a function 'addDistributor' that adds this role\n  function addDistributor(address account) public {\n    _addDistributor(account);\n  }\n\n  // Define a function 'renounceDistributor' to renounce this role\n  function renounceDistributor() public {\n    _removeDistributor(msg.sender);\n  }\n\n  // Define an internal function '_addDistributor' to add this role, called by 'addDistributor'\n  function _addDistributor(address account) internal {\n    distributors.add(account);\n    emit DistributorAdded(account);\n  }\n\n  // Define an internal function '_removeDistributor' to remove this role, called by 'removeDistributor'\n  function _removeDistributor(address account) internal {\n    distributors.remove(account);\n    emit DistributorRemoved(account);\n  }\n}",
  "sourcePath": "/home/clementtrebuchet/Documents/PROJECTS/udacity/nd1309-Project-6b-Example-Template/project-6/contracts/coffeeaccesscontrol/DistributorRole.sol",
  "compiler": {
    "name": "solc",
    "version": "0.8.7+commit.e28d00a7.Emscripten.clang"
  },
  "schemaVersion": "3.4.3",
  "updatedAt": "2021-10-31T14:28:42.066Z",
  "networkType": "ethereum",
  "devdoc": {
    "kind": "dev",
    "methods": {},
    "version": 1
  },
  "userdoc": {
    "kind": "user",
    "methods": {},
    "version": 1
  }
}