{
  "contractName": "Ownable",
  "abi": [
    {
      "inputs": [],
      "stateMutability": "nonpayable",
      "type": "constructor"
    },
    {
      "anonymous": false,
      "inputs": [
        {
          "indexed": true,
          "internalType": "address",
          "name": "oldOwner",
          "type": "address"
        },
        {
          "indexed": true,
          "internalType": "address",
          "name": "newOwner",
          "type": "address"
        }
      ],
      "name": "TransferOwnership",
      "type": "event"
    },
    {
      "inputs": [],
      "name": "_owner",
      "outputs": [
        {
          "internalType": "address",
          "name": "",
          "type": "address"
        }
      ],
      "stateMutability": "view",
      "type": "function",
      "constant": true
    },
    {
      "inputs": [],
      "name": "isOwner",
      "outputs": [
        {
          "internalType": "bool",
          "name": "",
          "type": "bool"
        }
      ],
      "stateMutability": "view",
      "type": "function",
      "constant": true
    },
    {
      "inputs": [],
      "name": "renounceOwnership",
      "outputs": [],
      "stateMutability": "nonpayable",
      "type": "function"
    },
    {
      "inputs": [
        {
          "internalType": "address",
          "name": "newOwner",
          "type": "address"
        }
      ],
      "name": "transferOwnership",
      "outputs": [],
      "stateMutability": "nonpayable",
      "type": "function"
    },
    {
      "inputs": [
        {
          "internalType": "address",
          "name": "newOwner",
          "type": "address"
        }
      ],
      "name": "_transferOwnership",
      "outputs": [],
      "stateMutability": "nonpayable",
      "type": "function"
    }
  ],
  "bytecode": "0x608060405234801561001057600080fd5b50600080546001600160a01b031916339081178255604051909182917f5c486528ec3e3f0ea91181cff8116f02bfa350e03b8b6f12e00765adbb5af85c908290a3506104b2806100616000396000f3fe608060405234801561001057600080fd5b50600436106100675760003560e01c8063b2bdfa7b11610050578063b2bdfa7b146100ac578063d29d44ee146100d4578063f2fde38b146100e757600080fd5b8063715018a61461006c5780638f32d59b14610076575b600080fd5b6100746100fa565b005b61009760005473ffffffffffffffffffffffffffffffffffffffff16331490565b60405190151581526020015b60405180910390f35b60005460405173ffffffffffffffffffffffffffffffffffffffff90911681526020016100a3565b6100746100e236600461043f565b6101f5565b6100746100f536600461043f565b6103ac565b61011b60005473ffffffffffffffffffffffffffffffffffffffff16331490565b610186576040517f08c379a000000000000000000000000000000000000000000000000000000000815260206004820181905260248201527f4f776e61626c653a2063616c6c6572206973206e6f7420746865206f776e657260448201526064015b60405180910390fd5b6000805460405173ffffffffffffffffffffffffffffffffffffffff909116907f5c486528ec3e3f0ea91181cff8116f02bfa350e03b8b6f12e00765adbb5af85c908390a3600080547fffffffffffffffffffffffff0000000000000000000000000000000000000000169055565b61021660005473ffffffffffffffffffffffffffffffffffffffff16331490565b61027c576040517f08c379a000000000000000000000000000000000000000000000000000000000815260206004820181905260248201527f4f776e61626c653a2063616c6c6572206973206e6f7420746865206f776e6572604482015260640161017d565b73ffffffffffffffffffffffffffffffffffffffff811661031f576040517f08c379a000000000000000000000000000000000000000000000000000000000815260206004820152602660248201527f4f776e61626c653a206e6577206f776e657220697320746865207a65726f206160448201527f6464726573730000000000000000000000000000000000000000000000000000606482015260840161017d565b6000805460405173ffffffffffffffffffffffffffffffffffffffff808516939216917f5c486528ec3e3f0ea91181cff8116f02bfa350e03b8b6f12e00765adbb5af85c91a3600080547fffffffffffffffffffffffff00000000000000000000000000000000000000001673ffffffffffffffffffffffffffffffffffffffff92909216919091179055565b6103cd60005473ffffffffffffffffffffffffffffffffffffffff16331490565b610433576040517f08c379a000000000000000000000000000000000000000000000000000000000815260206004820181905260248201527f4f776e61626c653a2063616c6c6572206973206e6f7420746865206f776e6572604482015260640161017d565b61043c816101f5565b50565b60006020828403121561045157600080fd5b813573ffffffffffffffffffffffffffffffffffffffff8116811461047557600080fd5b939250505056fea2646970667358221220692417847fb28b0ace5afe0c7769da52acc858e4ac79699f5e5f42854fe49cd064736f6c63430008070033",
  "immutableReferences": {},
  "source": "// SPDX-License-Identifier: MIT\npragma solidity ^0.8.7;\n\nimport \"./Context.sol\";\n\n/// Provides basic authorization control\ncontract Ownable is Context {\n    address private origOwner;\n    \n    // Define an Event\n    event TransferOwnership(address indexed oldOwner, address indexed newOwner);\n    \n    /// Assign the contract to an owner\n    constructor () {\n        address msgSender = _msgSender();\n        origOwner = msgSender;\n        emit TransferOwnership(payable(address(0)), origOwner);\n    }\n    \n    /// Look up the address of the owner\n    function _owner() public view returns (address) {\n        return origOwner;\n    }\n    \n    /// Define a function modifier 'onlyOwner'\n    modifier onlyOwner() {\n        require(isOwner(), \"Ownable: caller is not the owner\");\n        _;\n    }\n\n    /// Check if the calling address is the owner of the contract\n    function isOwner() public view returns (bool) {\n        return _owner() == _msgSender();\n    }\n    \n    /// Define a function to renounce ownership\n    function renounceOwnership() public virtual onlyOwner {\n        emit TransferOwnership(origOwner, address(0));\n        origOwner = address(0);\n    }\n    \n    /// Define a public function to transfer ownership\n    function transferOwnership(address newOwner) public virtual onlyOwner {\n        _transferOwnership(newOwner);\n    }\n    \n    /// Define an internal function to transfer ownership\n    function _transferOwnership(address newOwner) public virtual onlyOwner {\n        require(newOwner != address(0), \"Ownable: new owner is the zero address\");\n        emit TransferOwnership(origOwner, newOwner);\n        origOwner = newOwner;\n    }\n}\n",
  "sourcePath": "/home/clementtrebuchet/Documents/PROJECTS/udacity/nd1309-Project-6b-Example-Template/project-6/contracts/coffeecore/Ownable.sol",
  "compiler": {
    "name": "solc",
    "version": "0.8.7+commit.e28d00a7.Emscripten.clang"
  },
  "schemaVersion": "3.4.3",
  "updatedAt": "2021-10-31T14:28:42.192Z",
  "networkType": "ethereum",
  "devdoc": {
    "kind": "dev",
    "methods": {},
    "version": 1
  },
  "userdoc": {
    "kind": "user",
    "methods": {
      "_owner()": {
        "notice": "Look up the address of the owner"
      },
      "_transferOwnership(address)": {
        "notice": "Define an internal function to transfer ownership"
      },
      "constructor": {
        "notice": "Assign the contract to an owner"
      },
      "isOwner()": {
        "notice": "Check if the calling address is the owner of the contract"
      },
      "renounceOwnership()": {
        "notice": "Define a function to renounce ownership"
      },
      "transferOwnership(address)": {
        "notice": "Define a public function to transfer ownership"
      }
    },
    "notice": "Provides basic authorization control",
    "version": 1
  }
}