{
  "contractName": "SupplyChain",
  "abi": [
    {
      "inputs": [],
      "stateMutability": "payable",
      "type": "constructor",
      "payable": true
    },
    {
      "anonymous": false,
      "inputs": [
        {
          "indexed": true,
          "internalType": "address",
          "name": "account",
          "type": "address"
        }
      ],
      "name": "ConsumerAdded",
      "type": "event"
    },
    {
      "anonymous": false,
      "inputs": [
        {
          "indexed": true,
          "internalType": "address",
          "name": "account",
          "type": "address"
        }
      ],
      "name": "ConsumerRemoved",
      "type": "event"
    },
    {
      "anonymous": false,
      "inputs": [
        {
          "indexed": true,
          "internalType": "address",
          "name": "account",
          "type": "address"
        }
      ],
      "name": "DistributorAdded",
      "type": "event"
    },
    {
      "anonymous": false,
      "inputs": [
        {
          "indexed": true,
          "internalType": "address",
          "name": "account",
          "type": "address"
        }
      ],
      "name": "DistributorRemoved",
      "type": "event"
    },
    {
      "anonymous": false,
      "inputs": [
        {
          "indexed": true,
          "internalType": "address",
          "name": "account",
          "type": "address"
        }
      ],
      "name": "FarmerAdded",
      "type": "event"
    },
    {
      "anonymous": false,
      "inputs": [
        {
          "indexed": true,
          "internalType": "address",
          "name": "account",
          "type": "address"
        }
      ],
      "name": "FarmerRemoved",
      "type": "event"
    },
    {
      "anonymous": false,
      "inputs": [
        {
          "indexed": false,
          "internalType": "uint256",
          "name": "upc",
          "type": "uint256"
        }
      ],
      "name": "ForSale",
      "type": "event"
    },
    {
      "anonymous": false,
      "inputs": [
        {
          "indexed": false,
          "internalType": "uint256",
          "name": "upc",
          "type": "uint256"
        }
      ],
      "name": "Harvested",
      "type": "event"
    },
    {
      "anonymous": false,
      "inputs": [
        {
          "indexed": false,
          "internalType": "uint256",
          "name": "upc",
          "type": "uint256"
        }
      ],
      "name": "Packed",
      "type": "event"
    },
    {
      "anonymous": false,
      "inputs": [
        {
          "indexed": false,
          "internalType": "uint256",
          "name": "upc",
          "type": "uint256"
        }
      ],
      "name": "Processed",
      "type": "event"
    },
    {
      "anonymous": false,
      "inputs": [
        {
          "indexed": false,
          "internalType": "uint256",
          "name": "upc",
          "type": "uint256"
        }
      ],
      "name": "Purchased",
      "type": "event"
    },
    {
      "anonymous": false,
      "inputs": [
        {
          "indexed": false,
          "internalType": "uint256",
          "name": "upc",
          "type": "uint256"
        }
      ],
      "name": "Received",
      "type": "event"
    },
    {
      "anonymous": false,
      "inputs": [
        {
          "indexed": true,
          "internalType": "address",
          "name": "account",
          "type": "address"
        }
      ],
      "name": "RetailerAdded",
      "type": "event"
    },
    {
      "anonymous": false,
      "inputs": [
        {
          "indexed": true,
          "internalType": "address",
          "name": "account",
          "type": "address"
        }
      ],
      "name": "RetailerRemoved",
      "type": "event"
    },
    {
      "anonymous": false,
      "inputs": [
        {
          "indexed": false,
          "internalType": "uint256",
          "name": "upc",
          "type": "uint256"
        }
      ],
      "name": "Shipped",
      "type": "event"
    },
    {
      "anonymous": false,
      "inputs": [
        {
          "indexed": false,
          "internalType": "uint256",
          "name": "upc",
          "type": "uint256"
        }
      ],
      "name": "Sold",
      "type": "event"
    },
    {
      "anonymous": false,
      "inputs": [
        {
          "indexed": true,
          "internalType": "address",
          "name": "oldOwner",
          "type": "address"
        },
        {
          "indexed": true,
          "internalType": "address",
          "name": "newOwner",
          "type": "address"
        }
      ],
      "name": "TransferOwnership",
      "type": "event"
    },
    {
      "inputs": [],
      "name": "_owner",
      "outputs": [
        {
          "internalType": "address",
          "name": "",
          "type": "address"
        }
      ],
      "stateMutability": "view",
      "type": "function",
      "constant": true
    },
    {
      "inputs": [
        {
          "internalType": "address",
          "name": "newOwner",
          "type": "address"
        }
      ],
      "name": "_transferOwnership",
      "outputs": [],
      "stateMutability": "nonpayable",
      "type": "function"
    },
    {
      "inputs": [
        {
          "internalType": "address",
          "name": "account",
          "type": "address"
        }
      ],
      "name": "addConsumer",
      "outputs": [],
      "stateMutability": "nonpayable",
      "type": "function"
    },
    {
      "inputs": [
        {
          "internalType": "address",
          "name": "account",
          "type": "address"
        }
      ],
      "name": "addDistributor",
      "outputs": [],
      "stateMutability": "nonpayable",
      "type": "function"
    },
    {
      "inputs": [
        {
          "internalType": "address",
          "name": "account",
          "type": "address"
        }
      ],
      "name": "addFarmer",
      "outputs": [],
      "stateMutability": "nonpayable",
      "type": "function"
    },
    {
      "inputs": [
        {
          "internalType": "address",
          "name": "account",
          "type": "address"
        }
      ],
      "name": "addRetailer",
      "outputs": [],
      "stateMutability": "nonpayable",
      "type": "function"
    },
    {
      "inputs": [
        {
          "internalType": "address",
          "name": "account",
          "type": "address"
        }
      ],
      "name": "isConsumer",
      "outputs": [
        {
          "internalType": "bool",
          "name": "",
          "type": "bool"
        }
      ],
      "stateMutability": "view",
      "type": "function",
      "constant": true
    },
    {
      "inputs": [
        {
          "internalType": "address",
          "name": "account",
          "type": "address"
        }
      ],
      "name": "isDistributor",
      "outputs": [
        {
          "internalType": "bool",
          "name": "",
          "type": "bool"
        }
      ],
      "stateMutability": "view",
      "type": "function",
      "constant": true
    },
    {
      "inputs": [
        {
          "internalType": "address",
          "name": "account",
          "type": "address"
        }
      ],
      "name": "isFarmer",
      "outputs": [
        {
          "internalType": "bool",
          "name": "",
          "type": "bool"
        }
      ],
      "stateMutability": "view",
      "type": "function",
      "constant": true
    },
    {
      "inputs": [],
      "name": "isOwner",
      "outputs": [
        {
          "internalType": "bool",
          "name": "",
          "type": "bool"
        }
      ],
      "stateMutability": "view",
      "type": "function",
      "constant": true
    },
    {
      "inputs": [
        {
          "internalType": "address",
          "name": "account",
          "type": "address"
        }
      ],
      "name": "isRetailer",
      "outputs": [
        {
          "internalType": "bool",
          "name": "",
          "type": "bool"
        }
      ],
      "stateMutability": "view",
      "type": "function",
      "constant": true
    },
    {
      "inputs": [],
      "name": "renounceConsumer",
      "outputs": [],
      "stateMutability": "nonpayable",
      "type": "function"
    },
    {
      "inputs": [],
      "name": "renounceDistributor",
      "outputs": [],
      "stateMutability": "nonpayable",
      "type": "function"
    },
    {
      "inputs": [],
      "name": "renounceFarmer",
      "outputs": [],
      "stateMutability": "nonpayable",
      "type": "function"
    },
    {
      "inputs": [],
      "name": "renounceOwnership",
      "outputs": [],
      "stateMutability": "nonpayable",
      "type": "function"
    },
    {
      "inputs": [],
      "name": "renounceRetailer",
      "outputs": [],
      "stateMutability": "nonpayable",
      "type": "function"
    },
    {
      "inputs": [
        {
          "internalType": "address",
          "name": "newOwner",
          "type": "address"
        }
      ],
      "name": "transferOwnership",
      "outputs": [],
      "stateMutability": "nonpayable",
      "type": "function"
    },
    {
      "inputs": [],
      "name": "kill",
      "outputs": [],
      "stateMutability": "nonpayable",
      "type": "function"
    },
    {
      "inputs": [
        {
          "internalType": "uint256",
          "name": "_upc",
          "type": "uint256"
        },
        {
          "internalType": "address",
          "name": "_originFarmerID",
          "type": "address"
        },
        {
          "internalType": "string",
          "name": "_originFarmName",
          "type": "string"
        },
        {
          "internalType": "string",
          "name": "_originFarmInformation",
          "type": "string"
        },
        {
          "internalType": "string",
          "name": "_originFarmLatitude",
          "type": "string"
        },
        {
          "internalType": "string",
          "name": "_originFarmLongitude",
          "type": "string"
        },
        {
          "internalType": "string",
          "name": "_productNotes",
          "type": "string"
        }
      ],
      "name": "harvestItem",
      "outputs": [],
      "stateMutability": "nonpayable",
      "type": "function"
    },
    {
      "inputs": [
        {
          "internalType": "uint256",
          "name": "_upc",
          "type": "uint256"
        }
      ],
      "name": "processItem",
      "outputs": [],
      "stateMutability": "nonpayable",
      "type": "function"
    },
    {
      "inputs": [
        {
          "internalType": "uint256",
          "name": "_upc",
          "type": "uint256"
        }
      ],
      "name": "packItem",
      "outputs": [],
      "stateMutability": "nonpayable",
      "type": "function"
    },
    {
      "inputs": [
        {
          "internalType": "uint256",
          "name": "_upc",
          "type": "uint256"
        },
        {
          "internalType": "uint256",
          "name": "_price",
          "type": "uint256"
        }
      ],
      "name": "sellItem",
      "outputs": [],
      "stateMutability": "nonpayable",
      "type": "function"
    },
    {
      "inputs": [
        {
          "internalType": "uint256",
          "name": "_upc",
          "type": "uint256"
        }
      ],
      "name": "buyItem",
      "outputs": [],
      "stateMutability": "payable",
      "type": "function",
      "payable": true
    },
    {
      "inputs": [
        {
          "internalType": "uint256",
          "name": "_upc",
          "type": "uint256"
        }
      ],
      "name": "shipItem",
      "outputs": [],
      "stateMutability": "nonpayable",
      "type": "function"
    },
    {
      "inputs": [
        {
          "internalType": "uint256",
          "name": "_upc",
          "type": "uint256"
        }
      ],
      "name": "receiveItem",
      "outputs": [],
      "stateMutability": "nonpayable",
      "type": "function"
    },
    {
      "inputs": [
        {
          "internalType": "uint256",
          "name": "_upc",
          "type": "uint256"
        }
      ],
      "name": "purchaseItem",
      "outputs": [],
      "stateMutability": "nonpayable",
      "type": "function"
    },
    {
      "inputs": [
        {
          "internalType": "uint256",
          "name": "_upc",
          "type": "uint256"
        }
      ],
      "name": "fetchItemBufferOne",
      "outputs": [
        {
          "internalType": "uint256",
          "name": "itemSKU",
          "type": "uint256"
        },
        {
          "internalType": "uint256",
          "name": "itemUPC",
          "type": "uint256"
        },
        {
          "internalType": "address payable",
          "name": "ownerID",
          "type": "address"
        },
        {
          "internalType": "address payable",
          "name": "originFarmerID",
          "type": "address"
        },
        {
          "internalType": "string",
          "name": "originFarmName",
          "type": "string"
        },
        {
          "internalType": "string",
          "name": "originFarmInformation",
          "type": "string"
        },
        {
          "internalType": "string",
          "name": "originFarmLatitude",
          "type": "string"
        },
        {
          "internalType": "string",
          "name": "originFarmLongitude",
          "type": "string"
        }
      ],
      "stateMutability": "view",
      "type": "function",
      "constant": true
    },
    {
      "inputs": [
        {
          "internalType": "uint256",
          "name": "_upc",
          "type": "uint256"
        }
      ],
      "name": "fetchItemBufferTwo",
      "outputs": [
        {
          "internalType": "uint256",
          "name": "itemSKU",
          "type": "uint256"
        },
        {
          "internalType": "uint256",
          "name": "itemUPC",
          "type": "uint256"
        },
        {
          "internalType": "uint256",
          "name": "productID",
          "type": "uint256"
        },
        {
          "internalType": "string",
          "name": "productNotes",
          "type": "string"
        },
        {
          "internalType": "uint256",
          "name": "productPrice",
          "type": "uint256"
        },
        {
          "internalType": "uint256",
          "name": "itemState",
          "type": "uint256"
        },
        {
          "internalType": "address payable",
          "name": "distributorID",
          "type": "address"
        },
        {
          "internalType": "address payable",
          "name": "retailerID",
          "type": "address"
        },
        {
          "internalType": "address payable",
          "name": "consumerID",
          "type": "address"
        }
      ],
      "stateMutability": "view",
      "type": "function",
      "constant": true
    }
  ],
  "bytecode": "0x60806040819052600080546001600160a01b031916339081178255918291907f5c486528ec3e3f0ea91181cff8116f02bfa350e03b8b6f12e00765adbb5af85c908290a3506200004f33620000a2565b6200005a33620000f4565b620000653362000146565b620000703362000198565b600054600580546001600160a01b0319166001600160a01b03909216919091179055600160078190556006556200033e565b620000bd816001620001ea60201b620019fa1790919060201c565b6040516001600160a01b038216907f2e0ded4123377a3c2bc9a26f1717655a129e2f20752924d42e730ec89c83dbd090600090a250565b6200010f816002620001ea60201b620019fa1790919060201c565b6040516001600160a01b038216907fddbf200aa634dc3fb81cfd68583dd1040d1c751d335e1d86b631bde3e977fea890600090a250565b62000161816003620001ea60201b620019fa1790919060201c565b6040516001600160a01b038216907f71ae26cad02663e3d92efd6ec56031a80d74a20c0ab4183faa8bf262261c9baa90600090a250565b620001b3816004620001ea60201b620019fa1790919060201c565b6040516001600160a01b038216907f28b26e7a3d20aedbc5f8f2ebf7da671c0491723a2b78f47a097b0e46dee0714290600090a250565b6001600160a01b038116620002455760405162461bcd60e51b81526020600482015260276024820152600080516020620026748339815191526044820152660647265737320360cc1b60648201526084015b60405180910390fd5b620002518282620002c5565b15620002a05760405162461bcd60e51b815260206004820152601c60248201527f6163636f756e742068617320616c72656164792074686520726f6c650000000060448201526064016200023c565b6001600160a01b0316600090815260209190915260409020805460ff19166001179055565b60006001600160a01b0382166200031e5760405162461bcd60e51b81526020600482015260276024820152600080516020620026748339815191526044820152660647265737320360cc1b60648201526084016200023c565b506001600160a01b03166000908152602091909152604090205460ff1690565b612326806200034e6000396000f3fe6080604052600436106101b75760003560e01c80638ec4f505116100ec578063d29d44ee1161008a578063e7fb74c711610064578063e7fb74c7146104c3578063f2fde38b146104d6578063f30fc480146104f6578063f61c899a1461051657600080fd5b8063d29d44ee1461046e578063d38ea5bf1461048e578063db0e6a2f146104ae57600080fd5b8063a26be999116100c6578063a26be999146103e6578063b2bdfa7b14610406578063b94290691461042e578063bdd8a6a81461044e57600080fd5b80638ec4f505146103855780638f0c86fa146103a55780638f32d59b146103c557600080fd5b806366225ff91161015957806377c459131161013357806377c45913146102fc57806380c3f96d1461033057806380fc0ce414610350578063834ff7391461036557600080fd5b806366225ff914610292578063715018a6146102c75780637250e224146102dc57600080fd5b806349dae7661161019557806349dae766146102135780635da09b881461023357806361e6982d14610268578063644241db1461027d57600080fd5b8063112940f9146101bc5780632d923561146101de57806341c0e1b5146101fe575b600080fd5b3480156101c857600080fd5b506101dc6101d7366004611f48565b610536565b005b3480156101ea57600080fd5b506101dc6101f936600461206f565b610542565b34801561020a57600080fd5b506101dc610696565b34801561021f57600080fd5b506101dc61022e366004611f6a565b610704565b34801561023f57600080fd5b5061025361024e366004611f48565b61084b565b60405190151581526020015b60405180910390f35b34801561027457600080fd5b506101dc61085e565b34801561028957600080fd5b506101dc610869565b34801561029e57600080fd5b506102b26102ad366004611f6a565b610872565b60405161025f99989796959493929190612180565b3480156102d357600080fd5b506101dc6109a8565b3480156102e857600080fd5b506101dc6102f7366004611f48565b610a6a565b34801561030857600080fd5b5061031c610317366004611f6a565b610a73565b60405161025f9897969594939291906120fc565b34801561033c57600080fd5b506101dc61034b366004611f48565b610d27565b34801561035c57600080fd5b506101dc610d30565b34801561037157600080fd5b50610253610380366004611f48565b610d39565b34801561039157600080fd5b506101dc6103a0366004611f48565b610d46565b3480156103b157600080fd5b506102536103c0366004611f48565b610d4f565b3480156103d157600080fd5b506102536000546001600160a01b0316331490565b3480156103f257600080fd5b506101dc610401366004611f6a565b610d5c565b34801561041257600080fd5b506000546040516001600160a01b03909116815260200161025f565b34801561043a57600080fd5b50610253610449366004611f48565b610ebb565b34801561045a57600080fd5b506101dc610469366004611f83565b610ec8565b34801561047a57600080fd5b506101dc610489366004611f48565b6111d4565b34801561049a57600080fd5b506101dc6104a9366004611f6a565b611323565b3480156104ba57600080fd5b506101dc61147a565b6101dc6104d1366004611f6a565b611483565b3480156104e257600080fd5b506101dc6104f1366004611f48565b61170e565b34801561050257600080fd5b506101dc610511366004611f6a565b611777565b34801561052257600080fd5b506101dc610531366004611f6a565b6118b6565b61053f81611af2565b50565b8160026000828152600860205260409020600b015460ff16600781111561056b5761056b612292565b146105bd5760405162461bcd60e51b815260206004820152600d60248201527f6973206e6f74205061636b65640000000000000000000000000000000000000060448201526064015b60405180910390fd5b6000838152600860205260409020600301546001600160a01b03163381146105e457600080fd5b6105ed33610ebb565b6106395760405162461bcd60e51b815260206004820152600f60248201527f6973206e6f742061204661726d6572000000000000000000000000000000000060448201526064016105b4565b600084815260086020908152604091829020600a8101869055600b01805460ff1916600317905590518581527fa96ae0fc3224ebd79eebfe54bd130cc9cb94416cddd1f2386115e00b72532468910160405180910390a150505050565b6106aa6000546001600160a01b0316331490565b6106f65760405162461bcd60e51b815260206004820181905260248201527f4f776e61626c653a2063616c6c6572206973206e6f7420746865206f776e657260448201526064016105b4565b6005546001600160a01b0316ff5b80600080828152600860205260409020600b015460ff16600781111561072c5761072c612292565b146107795760405162461bcd60e51b815260206004820152601060248201527f6973206e6f74204861727665737465640000000000000000000000000000000060448201526064016105b4565b6000828152600860205260409020600301546001600160a01b03163381146107a057600080fd5b6107a933610ebb565b6107f55760405162461bcd60e51b815260206004820152600f60248201527f6973206e6f742061204661726d6572000000000000000000000000000000000060448201526064016105b4565b600083815260086020908152604091829020600b01805460ff1916600117905590518481527f5afe3b1bf87069693c075da5c22a98d63d1aef98a30dbbe538d0781a98b77ee591015b60405180910390a1505050565b6000610858600383611b34565b92915050565b61086733611bd2565b565b61086733611c14565b60008181526008602081905260408220805460018201549282015460099092018054919460609290918291829182918291906108ad9061220f565b80601f01602080910402602001604051908101604052809291908181526020018280546108d99061220f565b80156109265780601f106108fb57610100808354040283529160200191610926565b820191906000526020600020905b81548152906001019060200180831161090957829003601f168201915b50505060008d8152600860205260409020600a810154600b9091015493995097505060ff9091169050600781111561096057610960612292565b60008b8152600860205260409020600b810154600c820154600d909201549296506001600160a01b036101009091048116955090811693501690509193959799909294969850565b6109bc6000546001600160a01b0316331490565b610a085760405162461bcd60e51b815260206004820181905260248201527f4f776e61626c653a2063616c6c6572206973206e6f7420746865206f776e657260448201526064016105b4565b600080546040516001600160a01b03909116907f5c486528ec3e3f0ea91181cff8116f02bfa350e03b8b6f12e00765adbb5af85c908390a3600080547fffffffffffffffffffffffff0000000000000000000000000000000000000000169055565b61053f81611c56565b6000818152600860205260409020805460018201546002830154600384015460049094018054939492936001600160a01b039283169390921691606091829182918291610abf9061220f565b80601f0160208091040260200160405190810160405280929190818152602001828054610aeb9061220f565b8015610b385780601f10610b0d57610100808354040283529160200191610b38565b820191906000526020600020905b815481529060010190602001808311610b1b57829003601f168201915b50505060008c8152600860205260409020600501805493975092610b5e9250905061220f565b80601f0160208091040260200160405190810160405280929190818152602001828054610b8a9061220f565b8015610bd75780601f10610bac57610100808354040283529160200191610bd7565b820191906000526020600020905b815481529060010190602001808311610bba57829003601f168201915b50505060008c8152600860205260409020600601805493965092610bfd9250905061220f565b80601f0160208091040260200160405190810160405280929190818152602001828054610c299061220f565b8015610c765780601f10610c4b57610100808354040283529160200191610c76565b820191906000526020600020905b815481529060010190602001808311610c5957829003601f168201915b50505060008c8152600860205260409020600701805493955092610c9c9250905061220f565b80601f0160208091040260200160405190810160405280929190818152602001828054610cc89061220f565b8015610d155780601f10610cea57610100808354040283529160200191610d15565b820191906000526020600020905b815481529060010190602001808311610cf857829003601f168201915b50505050509050919395975091939597565b61053f81611c98565b61086733611cda565b6000610858600483611b34565b61053f81611d1c565b6000610858600283611b34565b8060056000828152600860205260409020600b015460ff166007811115610d8557610d85612292565b14610dd25760405162461bcd60e51b815260206004820152600e60248201527f6973206e6f74205368697070656400000000000000000000000000000000000060448201526064016105b4565b610ddb3361084b565b610e275760405162461bcd60e51b815260206004820152601160248201527f6973206e6f7420612052657461696c657200000000000000000000000000000060448201526064016105b4565b6000828152600860209081526040918290206002810180547fffffffffffffffffffffffff000000000000000000000000000000000000000090811633908117909255600c830180549091169091179055600b01805460ff1916600617905590518381527fa8142743f8f70a4c26f3691cf4ed59718381fb2f18070ec52be1f1022d85555791015b60405180910390a15050565b6000610858600183611b34565b610ed133610ebb565b610f1d5760405162461bcd60e51b815260206004820152600f60248201527f6973206e6f742061204661726d6572000000000000000000000000000000000060448201526064016105b4565b6000604051806101e001604052806007548152602001898152602001886001600160a01b03168152602001886001600160a01b0316815260200187815260200186815260200185815260200184815260200189600754610f7d91906121e0565b81526020018381526020016000815260200160006007811115610fa257610fa2612292565b815260006020808301829052604080840183905260609384018390528c8352600882529182902084518155848201516001820155918401516002830180547fffffffffffffffffffffffff00000000000000000000000000000000000000009081166001600160a01b039384161790915593850151600384018054909516911617909255608083015180519394508493919261104692600485019290910190611de8565b5060a08201518051611062916005840191602090910190611de8565b5060c0820151805161107e916006840191602090910190611de8565b5060e0820151805161109a916007840191602090910190611de8565b50610100820151600882015561012082015180516110c2916009840191602090910190611de8565b50610140820151600a820155610160820151600b8201805460ff191660018360078111156110f2576110f2612292565b0217905550610180820151600b820180547fffffffffffffffffffffff0000000000000000000000000000000000000000ff166101006001600160a01b03938416021790556101a0830151600c830180547fffffffffffffffffffffffff00000000000000000000000000000000000000009081169284169290921790556101c090930151600d909201805490931691161790556007546111949060016121e0565b6007556040518881527f8e55ccfc9778ff8eba1646d765cf1982537ce0f9257054a17b48aad7452501839060200160405180910390a15050505050505050565b6111e86000546001600160a01b0316331490565b6112345760405162461bcd60e51b815260206004820181905260248201527f4f776e61626c653a2063616c6c6572206973206e6f7420746865206f776e657260448201526064016105b4565b6001600160a01b0381166112b05760405162461bcd60e51b815260206004820152602660248201527f4f776e61626c653a206e6577206f776e657220697320746865207a65726f206160448201527f646472657373000000000000000000000000000000000000000000000000000060648201526084016105b4565b600080546040516001600160a01b03808516939216917f5c486528ec3e3f0ea91181cff8116f02bfa350e03b8b6f12e00765adbb5af85c91a3600080547fffffffffffffffffffffffff0000000000000000000000000000000000000000166001600160a01b0392909216919091179055565b8060066000828152600860205260409020600b015460ff16600781111561134c5761134c612292565b146113995760405162461bcd60e51b815260206004820152600f60248201527f4973206e6f74205265636569766564000000000000000000000000000000000060448201526064016105b4565b6113a233610d39565b6113ee5760405162461bcd60e51b815260206004820152601160248201527f6973206e6f74206120636f6e73756d657200000000000000000000000000000060448201526064016105b4565b6000828152600860209081526040918290206002810180547fffffffffffffffffffffffff000000000000000000000000000000000000000090811633908117909255600d830180549091169091179055600b01805460ff1916600717905590518381527f653d56639fee6b566a5c804764e9689de38645f0b733df89a36a1b7b42173dd89101610eaf565b61086733611d5e565b8060036000828152600860205260409020600b015460ff1660078111156114ac576114ac612292565b146114f95760405162461bcd60e51b815260206004820152600e60248201527f6973206e6f7420466f7253616c6500000000000000000000000000000000000060448201526064016105b4565b6000828152600860205260409020600a01543481111561155b5760405162461bcd60e51b815260206004820152601560248201527f455448206973206e6f742073756666696369656e74000000000000000000000060448201526064016105b4565b8261156533610d4f565b6115b15760405162461bcd60e51b815260206004820152601460248201527f6973206e6f742061204469737472696275746f7200000000000000000000000060448201526064016105b4565b6000848152600860205260408082206002810180547fffffffffffffffffffffffff00000000000000000000000000000000000000001633908117909155600b82018054600461010090930260ff19167fffffffffffffffffffffff000000000000000000000000000000000000000000909116179190911790556003810154600a9091015491516001600160a01b039091169282156108fc02929190818181858888f1935050505015801561166b573d6000803e3d6000fd5b506040518481527f92f64ca637d023f354075a4be751b169c1a8a9ccb6d33cdd0cb35205439957279060200160405180910390a16000818152600860205260408120600a0154906116bc82346121f8565b600084815260086020526040808220600d015490519293506001600160a01b03169183156108fc0291849190818181858888f19350505050158015611705573d6000803e3d6000fd5b50505050505050565b6117226000546001600160a01b0316331490565b61176e5760405162461bcd60e51b815260206004820181905260248201527f4f776e61626c653a2063616c6c6572206973206e6f7420746865206f776e657260448201526064016105b4565b61053f816111d4565b8060016000828152600860205260409020600b015460ff1660078111156117a0576117a0612292565b146117ed5760405162461bcd60e51b815260206004820152601060248201527f4973206e6f742050726f6365737365640000000000000000000000000000000060448201526064016105b4565b6000828152600860205260409020600301546001600160a01b031633811461181457600080fd5b61181d33610ebb565b6118695760405162461bcd60e51b815260206004820152600f60248201527f6973206e6f742061204661726d6572000000000000000000000000000000000060448201526064016105b4565b600083815260086020908152604091829020600b01805460ff1916600217905590518481527f9b3b66e2380b690bae22c73ef1428fb0c91e72fe14a4b6defa13035214187aff910161083e565b8060046000828152600860205260409020600b015460ff1660078111156118df576118df612292565b1461192c5760405162461bcd60e51b815260206004820152600b60248201527f6973206e6f7420536f6c6400000000000000000000000000000000000000000060448201526064016105b4565b6000828152600860205260409020600b015461010090046001600160a01b031633811461195857600080fd5b61196133610d4f565b6119ad5760405162461bcd60e51b815260206004820152601460248201527f6973206e6f742061204469737472696275746f7200000000000000000000000060448201526064016105b4565b600083815260086020908152604091829020600b01805460ff1916600517905590518481527ff00b9a5725b80c54016f42114f6ed7792d22eecb116011c4afac29c57bef6c95910161083e565b6001600160a01b038116611a765760405162461bcd60e51b815260206004820152602760248201527f6163636f756e74206973206e6f7420646966666572656e74207468617420616460448201527f647265737320300000000000000000000000000000000000000000000000000060648201526084016105b4565b611a808282611b34565b15611acd5760405162461bcd60e51b815260206004820152601c60248201527f6163636f756e742068617320616c72656164792074686520726f6c650000000060448201526064016105b4565b6001600160a01b0316600090815260209190915260409020805460ff19166001179055565b611afd6004826119fa565b6040516001600160a01b038216907f28b26e7a3d20aedbc5f8f2ebf7da671c0491723a2b78f47a097b0e46dee0714290600090a250565b60006001600160a01b038216611bb25760405162461bcd60e51b815260206004820152602760248201527f6163636f756e74206973206e6f7420646966666572656e74207468617420616460448201527f647265737320300000000000000000000000000000000000000000000000000060648201526084016105b4565b506001600160a01b03166000908152602091909152604090205460ff1690565b611bdd600482611da0565b6040516001600160a01b038216907fe3f5ed5f263f1f01764a96edfc7d025f511ec5f7d180e8816908b78bcf74f09890600090a250565b611c1f600282611da0565b6040516001600160a01b038216907f126174f6cf49c81cdb4a9214c6b8f037bef55b4ec31e4fc776cea2a1c8a88d5990600090a250565b611c616002826119fa565b6040516001600160a01b038216907fddbf200aa634dc3fb81cfd68583dd1040d1c751d335e1d86b631bde3e977fea890600090a250565b611ca36001826119fa565b6040516001600160a01b038216907f2e0ded4123377a3c2bc9a26f1717655a129e2f20752924d42e730ec89c83dbd090600090a250565b611ce5600182611da0565b6040516001600160a01b038216907fa5e0f060af304ab17dd418c7927e3da3ae7868189bf387aee09ab179ccc572f290600090a250565b611d276003826119fa565b6040516001600160a01b038216907f71ae26cad02663e3d92efd6ec56031a80d74a20c0ab4183faa8bf262261c9baa90600090a250565b611d69600382611da0565b6040516001600160a01b038216907fdb7176e79cffef81cb01767dd0447a0b24bb72ca9778d4b245581086b2a7e6db90600090a250565b6001600160a01b038116611db357600080fd5b611dbd8282611b34565b611dc657600080fd5b6001600160a01b0316600090815260209190915260409020805460ff19169055565b828054611df49061220f565b90600052602060002090601f016020900481019282611e165760008555611e5c565b82601f10611e2f57805160ff1916838001178555611e5c565b82800160010185558215611e5c579182015b82811115611e5c578251825591602001919060010190611e41565b50611e68929150611e6c565b5090565b5b80821115611e685760008155600101611e6d565b80356001600160a01b0381168114611e9857600080fd5b919050565b600082601f830112611eae57600080fd5b813567ffffffffffffffff80821115611ec957611ec96122c1565b604051601f83017fffffffffffffffffffffffffffffffffffffffffffffffffffffffffffffffe0908116603f01168101908282118183101715611f0f57611f0f6122c1565b81604052838152866020858801011115611f2857600080fd5b836020870160208301376000602085830101528094505050505092915050565b600060208284031215611f5a57600080fd5b611f6382611e81565b9392505050565b600060208284031215611f7c57600080fd5b5035919050565b600080600080600080600060e0888a031215611f9e57600080fd5b87359650611fae60208901611e81565b9550604088013567ffffffffffffffff80821115611fcb57600080fd5b611fd78b838c01611e9d565b965060608a0135915080821115611fed57600080fd5b611ff98b838c01611e9d565b955060808a013591508082111561200f57600080fd5b61201b8b838c01611e9d565b945060a08a013591508082111561203157600080fd5b61203d8b838c01611e9d565b935060c08a013591508082111561205357600080fd5b506120608a828b01611e9d565b91505092959891949750929550565b6000806040838503121561208257600080fd5b50508035926020909101359150565b6000815180845260005b818110156120b75760208185018101518683018201520161209b565b818111156120c9576000602083870101525b50601f017fffffffffffffffffffffffffffffffffffffffffffffffffffffffffffffffe0169290920160200192915050565b60006101008a83528960208401526001600160a01b03808a16604085015280891660608501525080608084015261213581840188612091565b905082810360a08401526121498187612091565b905082810360c084015261215d8186612091565b905082810360e08401526121718185612091565b9b9a5050505050505050505050565b60006101208b83528a60208401528960408401528060608401526121a68184018a612091565b6080840198909852505060a08101949094526001600160a01b0392831660c085015290821660e08401521661010090910152949350505050565b600082198211156121f3576121f3612263565b500190565b60008282101561220a5761220a612263565b500390565b600181811c9082168061222357607f821691505b6020821081141561225d577f4e487b7100000000000000000000000000000000000000000000000000000000600052602260045260246000fd5b50919050565b7f4e487b7100000000000000000000000000000000000000000000000000000000600052601160045260246000fd5b7f4e487b7100000000000000000000000000000000000000000000000000000000600052602160045260246000fd5b7f4e487b7100000000000000000000000000000000000000000000000000000000600052604160045260246000fdfea2646970667358221220697244425adbb0b7d30cd7dbfe5eab045aade86b91f7094143d6c5a8033079cf64736f6c634300080700336163636f756e74206973206e6f7420646966666572656e742074686174206164",
  "immutableReferences": {},
  "source": "// SPDX-License-Identifier: MIT\npragma solidity ^0.8.7;\n// Define a contract 'Supplychain'\n\nimport \"../coffeecore/Ownable.sol\";\nimport \"../coffeeaccesscontrol/FarmerRole.sol\";\nimport \"../coffeeaccesscontrol/DistributorRole.sol\";\nimport \"../coffeeaccesscontrol/RetailerRole.sol\";\nimport \"../coffeeaccesscontrol/ConsumerRole.sol\";\n\ncontract SupplyChain is Ownable, FarmerRole, DistributorRole, RetailerRole, ConsumerRole {\n\n  // Define 'owner'\n  address owner;\n\n  // Define a variable called 'upc' for Universal Product Code (UPC)\n  uint  upc;\n\n  // Define a variable called 'sku' for Stock Keeping Unit (SKU)\n  uint  sku;\n\n  // Define a public mapping 'items' that maps the UPC to an Item.\n  mapping (uint => Item) items;\n\n  // Define a public mapping 'itemsHistory' that maps the UPC to an array of TxHash, \n  // that track its journey through the supply chain -- to be sent from DApp.\n  mapping (uint => string[]) itemsHistory;\n  \n  // Define enum 'State' with the following values:\n  enum State \n  { \n    Harvested,  // 0\n    Processed,  // 1\n    Packed,     // 2\n    ForSale,    // 3\n    Sold,       // 4\n    Shipped,    // 5\n    Received,   // 6\n    Purchased   // 7\n    }\n\n  State constant defaultState = State.Harvested;\n\n  // Define a struct 'Item' with the following fields:\n  struct Item {\n    uint sku;  // Stock Keeping Unit (SKU)\n    uint upc; // Universal Product Code (UPC), generated by the Farmer, goes on the package, can be verified by the Consumer\n    address payable ownerID;  // Metamask-Ethereum address of the current owner as the product moves through 8 stages\n    address payable originFarmerID; // Metamask-Ethereum address of the Farmer\n    string originFarmName; // Farmer Name\n    string originFarmInformation;  // Farmer Information\n    string originFarmLatitude; // Farm Latitude\n    string originFarmLongitude;  // Farm Longitude\n    uint productID;  // Product ID potentially a combination of upc + sku\n    string productNotes; // Product Notes\n    uint productPrice; // Product Price\n    State itemState;  // Product State as represented in the enum above\n    address payable distributorID;  // Metamask-Ethereum address of the Distributor\n    address payable retailerID; // Metamask-Ethereum address of the Retailer\n    address payable consumerID; // Metamask-Ethereum address of the Consumer\n  }\n\n  // Define 8 events with the same 8 state values and accept 'upc' as input argument\n  event Harvested(uint upc);\n  event Processed(uint upc);\n  event Packed(uint upc);\n  event ForSale(uint upc);\n  event Sold(uint upc);\n  event Shipped(uint upc);\n  event Received(uint upc);\n  event Purchased(uint upc);\n  \n  \n  // Define a modifier that verifies the Caller\n  modifier verifyCaller (address payable _address) {\n    require(msg.sender == _address);\n    _;\n  }\n  \n  // Define a modifier that checks if the paid amount is sufficient to cover the price\n  modifier paidEnough(uint _price) {\n    require(msg.value >= _price, \"ETH is not sufficient\");\n    _;\n  }\n  \n  // Define a modifier that checks the price and refunds the remaining balance\n  modifier checkValue(uint _upc) {\n    _;\n    uint _price = items[_upc].productPrice;\n    uint amountToReturn = msg.value - _price;\n    items[_upc].consumerID.transfer(amountToReturn);\n  }\n\n  // Define a modifier that checks if an item.state of a upc is Harvested\n  modifier harvested(uint _upc) {\n    require(items[_upc].itemState == State.Harvested, \"is not Harvested\");\n    _;\n  }\n\n  // Define a modifier that checks if an item.state of a upc is Processed\n  modifier processed(uint _upc) {\n    require(items[_upc].itemState == State.Processed, \"Is not Processed\");\n    _;\n  }\n  \n  // Define a modifier that checks if an item.state of a upc is Packed\n  modifier packed(uint _upc) {\n    require(items[_upc].itemState == State.Packed, \"is not Packed\");\n    _;\n  }\n\n  // Define a modifier that checks if an item.state of a upc is ForSale\n  modifier forSale(uint _upc) {\n    require(items[_upc].itemState == State.ForSale, \"is not ForSale\");\n    _;\n  }\n\n  // Define a modifier that checks if an item.state of a upc is Sold\n  modifier sold(uint _upc) {\n    require(items[_upc].itemState == State.Sold, \"is not Sold\");\n    _;\n  }\n  \n  // Define a modifier that checks if an item.state of a upc is Shipped\n  modifier shipped(uint _upc) {\n    require(items[_upc].itemState == State.Shipped, \"is not Shipped\");\n    _;\n  }\n\n  // Define a modifier that checks if an item.state of a upc is Received\n  modifier received(uint _upc) {\n    require(items[_upc].itemState == State.Received, \"Is not Received\");\n    _;\n  }\n  \n  // Define a modifier that checks if an item.state of a upc is Purchased\n  modifier purchased(uint _upc) {\n    require(items[_upc].itemState == State.Purchased, \"Is not Purchased\");\n    _;\n  }\n  \n  // In the constructor set 'owner' to the address that instantiated the contract\n  // and set 'sku' to 1\n  // and set 'upc' to 1\n  constructor() payable {\n    owner = _owner();\n    sku = 1;\n    upc = 1;\n  }\n  \n  // Define a function 'kill' if required\n  function kill() public onlyOwner {\n    selfdestruct(payable(owner));\n  }\n  // Define a function 'harvestItem' that allows a farmer to mark an item 'Harvested'\n  function harvestItem(\n    uint _upc,\n    address _originFarmerID,\n    string memory _originFarmName,\n    string memory _originFarmInformation,\n    string memory _originFarmLatitude,\n    string memory _originFarmLongitude,\n    string memory _productNotes) public onlyFarmer\n  {\n    // Add the new item as part of Harvest\n    Item memory item = Item({\n    sku : sku,\n    upc : _upc,\n    ownerID : payable(_originFarmerID),\n    originFarmerID : payable(_originFarmerID),\n    originFarmName : _originFarmName,\n    originFarmInformation : _originFarmInformation,\n    originFarmLatitude : _originFarmLatitude,\n    originFarmLongitude : _originFarmLongitude,\n    productID : sku + _upc,\n    productNotes : _productNotes,\n    productPrice : 0,\n    itemState : defaultState,\n    distributorID : payable(address(0x0000000000000000000000000000000000000000)),\n    retailerID : payable(address(0x0000000000000000000000000000000000000000)),\n    consumerID : payable(address(0x0000000000000000000000000000000000000000))\n    });\n    items[_upc] = item;\n    // Increment sku\n    sku = sku + 1;\n    // Emit the appropriate event\n    emit Harvested(_upc);\n  }\n\n  // Define a function 'processtItem' that allows a farmer to mark an item 'Processed'\n  function processItem(uint _upc) public \n  // Call modifier to check if upc has passed previous supply chain stage\n  harvested(_upc)\n  // Call modifier to verify caller of this function\n  verifyCaller(items[_upc].originFarmerID) onlyFarmer\n  {\n    // Update the appropriate fields\n    items[_upc].itemState = State.Processed;\n    // Emit the appropriate event\n    emit Processed(_upc);\n  }\n\n  // Define a function 'packItem' that allows a farmer to mark an item 'Packed'\n  function packItem(uint _upc) public \n  // Call modifier to check if upc has passed previous supply chain stage\n  processed(_upc)\n  // Call modifier to verify caller of this function\n  verifyCaller(items[_upc].originFarmerID) onlyFarmer\n  {\n    // Update the appropriate fields\n    items[_upc].itemState = State.Packed;\n    // Emit the appropriate event\n    emit Packed(_upc);\n  }\n\n  // Define a function 'sellItem' that allows a farmer to mark an item 'ForSale'\n  function sellItem(uint _upc, uint _price) public\n  // Call modifier to check if upc has passed previous supply chain stage\n  packed(_upc)\n  // Call modifier to verify caller of this function\n  verifyCaller(items[_upc].originFarmerID) onlyFarmer\n  {\n    // Update the appropriate fields\n    items[_upc].productPrice = _price;\n    items[_upc].itemState = State.ForSale;\n    // Emit the appropriate event\n    emit ForSale(_upc);\n  }\n\n  // Define a function 'buyItem' that allows the disributor to mark an item 'Sold'\n  // Use the above defined modifiers to check if the item is available for sale, if the buyer has paid enough, \n  // and any excess ether sent is refunded back to the buyer\n  function buyItem(uint _upc) public payable\n    // Call modifier to check if upc has passed previous supply chain stage\n  forSale(_upc)\n    // Call modifier to check if buyer has paid enough\n  paidEnough(items[_upc].productPrice)\n    // Call modifier to send any excess ether back to buyer\n  checkValue(_upc) onlyDistributor\n  {\n    \n    // Update the appropriate fields - ownerID, distributorID, itemState\n    items[_upc].ownerID = payable(msg.sender);\n    items[_upc].distributorID = payable(msg.sender);\n    items[_upc].itemState = State.Sold;\n    // Transfer money to farmer\n    items[_upc].originFarmerID.transfer(items[_upc].productPrice);\n    // emit the appropriate event\n    emit Sold(_upc);\n  }\n  \n  // Define a function 'shipItem' that allows the distributor to mark an item 'Shipped'\n  // Use the above modifiers to check if the item is sold\n  function shipItem(uint _upc) public\n    // Call modifier to check if upc has passed previous supply chain stage\n    sold(_upc)\n    // Call modifier to verify caller of this function\n    verifyCaller(items[_upc].distributorID) onlyDistributor\n    {\n    // Update the appropriate fields\n    items[_upc].itemState = State.Shipped;\n    // Emit the appropriate event\n    emit Shipped(_upc);\n  }\n\n  // Define a function 'receiveItem' that allows the retailer to mark an item 'Received'\n  // Use the above modifiers to check if the item is shipped\n  function receiveItem(uint _upc) public\n    // Call modifier to check if upc has passed previous supply chain stage\n    shipped(_upc) onlyRetailer\n    // Access Control List enforced by calling Smart Contract / DApp\n  {\n    // Update the appropriate fields - ownerID, retailerID, itemState\n    items[_upc].ownerID = payable(msg.sender);\n    items[_upc].retailerID = payable(msg.sender);\n    items[_upc].itemState = State.Received;\n    // Emit the appropriate event\n    emit Received(_upc);\n  }\n\n  // Define a function 'purchaseItem' that allows the consumer to mark an item 'Purchased'\n  // Use the above modifiers to check if the item is received\n  function purchaseItem(uint _upc) public\n    // Call modifier to check if upc has passed previous supply chain stage\n    received(_upc) onlyConsumer\n    // Access Control List enforced by calling Smart Contract / DApp\n  {\n    // Update the appropriate fields - ownerID, consumerID, itemState\n    items[_upc].ownerID = payable(msg.sender);\n    items[_upc].consumerID = payable(msg.sender);\n    items[_upc].itemState = State.Purchased;\n    // Emit the appropriate event\n    emit Purchased(_upc);\n  }\n\n  // Define a function 'fetchItemBufferOne' that fetches the data\n  function fetchItemBufferOne(uint _upc) public view returns\n  (\n    uint itemSKU,\n    uint itemUPC,\n    address payable ownerID,\n    address payable originFarmerID,\n    string  memory originFarmName,\n    string  memory originFarmInformation,\n    string  memory originFarmLatitude,\n    string  memory originFarmLongitude\n  ) \n  {\n  // Assign values to the 8 parameters\n  itemSKU = items[_upc].sku;\n  itemUPC = items[_upc].upc;\n  ownerID = items[_upc].ownerID;\n  originFarmerID = items[_upc].originFarmerID;\n  originFarmName = items[_upc].originFarmName;\n  originFarmInformation = items[_upc].originFarmInformation;\n  originFarmLatitude = items[_upc].originFarmLatitude;\n  originFarmLongitude = items[_upc].originFarmLongitude;\n  return \n  (\n  itemSKU,\n  itemUPC,\n  ownerID,\n  originFarmerID,\n  originFarmName,\n  originFarmInformation,\n  originFarmLatitude,\n  originFarmLongitude\n  );\n  }\n\n  // Define a function 'fetchItemBufferTwo' that fetches the data\n  function fetchItemBufferTwo(uint _upc) public view returns\n  (\n    uint itemSKU,\n    uint itemUPC,\n    uint productID,\n    string  memory productNotes,\n    uint productPrice,\n    uint itemState,\n    address payable distributorID,\n    address payable retailerID,\n    address payable consumerID\n  ) \n  {\n    // Assign values to the 9 parameters\n  itemSKU = items[_upc].sku;\n  itemUPC = items[_upc].upc;\n  productID = items[_upc].productID;\n  productNotes = items[_upc].productNotes;\n  productPrice = items[_upc].productPrice;\n  itemState = uint256(items[_upc].itemState);\n  distributorID = items[_upc].distributorID;\n  retailerID = items[_upc].retailerID;\n  consumerID = items[_upc].consumerID;\n  return \n  (\n  itemSKU,\n  itemUPC,\n  productID,\n  productNotes,\n  productPrice,\n  itemState,\n  distributorID,\n  retailerID,\n  consumerID\n  );\n  }\n}\n",
  "sourcePath": "/home/clementtrebuchet/Documents/PROJECTS/udacity/nd1309-Project-6b-Example-Template/project-6/contracts/coffeebase/SupplyChain.sol",
  "compiler": {
    "name": "solc",
    "version": "0.8.7+commit.e28d00a7.Emscripten.clang"
  },
  "schemaVersion": "3.4.3",
  "updatedAt": "2021-10-31T14:28:42.155Z",
  "networkType": "ethereum",
  "devdoc": {
    "kind": "dev",
    "methods": {},
    "version": 1
  },
  "userdoc": {
    "kind": "user",
    "methods": {
      "_owner()": {
        "notice": "Look up the address of the owner"
      },
      "_transferOwnership(address)": {
        "notice": "Define an internal function to transfer ownership"
      },
      "isOwner()": {
        "notice": "Check if the calling address is the owner of the contract"
      },
      "renounceOwnership()": {
        "notice": "Define a function to renounce ownership"
      },
      "transferOwnership(address)": {
        "notice": "Define a public function to transfer ownership"
      }
    },
    "version": 1
  }
}